{
  "_format": "hh-sol-artifact-1",
  "contractName": "AvaxLottery",
  "sourceName": "contracts/AvaxLottery.sol",
  "abi": [
    {
      "inputs": [],
      "stateMutability": "nonpayable",
      "type": "constructor"
    },
    {
      "inputs": [
        {
          "internalType": "string",
          "name": "_text",
          "type": "string"
        },
        {
          "internalType": "uint256[6]",
          "name": "_numbers",
          "type": "uint256[6]"
        }
      ],
      "name": "create_ticket",
      "outputs": [],
      "stateMutability": "nonpayable",
      "type": "function"
    },
    {
      "inputs": [],
      "name": "get_pool_prize",
      "outputs": [
        {
          "internalType": "uint256",
          "name": "",
          "type": "uint256"
        }
      ],
      "stateMutability": "view",
      "type": "function"
    },
    {
      "inputs": [],
      "name": "get_ticket_status",
      "outputs": [
        {
          "internalType": "enum AvaxLottery.TicketStatus",
          "name": "",
          "type": "uint8"
        }
      ],
      "stateMutability": "view",
      "type": "function"
    },
    {
      "inputs": [],
      "name": "get_tickets",
      "outputs": [
        {
          "internalType": "uint256",
          "name": "",
          "type": "uint256"
        }
      ],
      "stateMutability": "view",
      "type": "function"
    },
    {
      "inputs": [],
      "name": "owner",
      "outputs": [
        {
          "internalType": "address payable",
          "name": "",
          "type": "address"
        }
      ],
      "stateMutability": "view",
      "type": "function"
    },
    {
      "inputs": [
        {
          "internalType": "uint256",
          "name": "",
          "type": "uint256"
        }
      ],
      "name": "player",
      "outputs": [
        {
          "internalType": "uint256",
          "name": "id",
          "type": "uint256"
        },
        {
          "internalType": "bool",
          "name": "played",
          "type": "bool"
        }
      ],
      "stateMutability": "view",
      "type": "function"
    },
    {
      "inputs": [],
      "name": "playersCount",
      "outputs": [
        {
          "internalType": "uint256",
          "name": "",
          "type": "uint256"
        }
      ],
      "stateMutability": "view",
      "type": "function"
    },
    {
      "inputs": [],
      "name": "prize_pool",
      "outputs": [
        {
          "internalType": "uint256",
          "name": "",
          "type": "uint256"
        }
      ],
      "stateMutability": "view",
      "type": "function"
    },
    {
      "inputs": [],
      "name": "reset_ticket_status",
      "outputs": [],
      "stateMutability": "nonpayable",
      "type": "function"
    },
    {
      "inputs": [
        {
          "internalType": "enum AvaxLottery.TicketStatus",
          "name": "_status",
          "type": "uint8"
        }
      ],
      "name": "set_ticket_status",
      "outputs": [],
      "stateMutability": "nonpayable",
      "type": "function"
    },
    {
      "inputs": [
        {
          "internalType": "uint256",
          "name": "",
          "type": "uint256"
        }
      ],
      "name": "ticket_info",
      "outputs": [
        {
          "internalType": "string",
          "name": "title",
          "type": "string"
        }
      ],
      "stateMutability": "view",
      "type": "function"
    },
    {
      "inputs": [],
      "name": "ticket_status",
      "outputs": [
        {
          "internalType": "enum AvaxLottery.TicketStatus",
          "name": "",
          "type": "uint8"
        }
      ],
      "stateMutability": "view",
      "type": "function"
    },
    {
      "inputs": [],
      "name": "transfer_prize",
      "outputs": [],
      "stateMutability": "nonpayable",
      "type": "function"
    },
    {
      "inputs": [],
      "name": "update_prize_pool",
      "outputs": [],
      "stateMutability": "nonpayable",
      "type": "function"
    }
  ],
  "bytecode": "0x6080604052600060025534801561001557600080fd5b50336000806101000a81548173ffffffffffffffffffffffffffffffffffffffff021916908373ffffffffffffffffffffffffffffffffffffffff160217905550611006806100656000396000f3fe608060405234801561001057600080fd5b50600436106100ea5760003560e01c80638da5cb5b1161008c578063a3f67d6d11610066578063a3f67d6d146101f0578063b23f93401461020e578063d10d2bea1461022c578063da43077d1461025c576100ea565b80638da5cb5b14610183578063957bdf60146101a15780639e0551c6146101bf576100ea565b80634440d7d4116100c85780634440d7d4146101495780635ca8379c146101655780636549e2961461016f5780637725079814610179576100ea565b80630854888c146100ef578063116723c91461010d578063139e79f11461012b575b600080fd5b6100f7610278565b604051610104919061074d565b60405180910390f35b61011561028f565b6040516101229190610781565b60405180910390f35b610133610299565b604051610140919061074d565b60405180910390f35b610163600480360381019061015e91906107d5565b6102ac565b005b61016d610367565b005b610177610409565b005b61018161040b565b005b61018b61040d565b6040516101989190610843565b60405180910390f35b6101a9610431565b6040516101b69190610781565b60405180910390f35b6101d960048036038101906101d4919061088a565b61043e565b6040516101e79291906108d2565b60405180910390f35b6101f861046f565b6040516102059190610781565b60405180910390f35b610216610475565b6040516102239190610781565b60405180910390f35b6102466004803603810190610241919061088a565b61047b565b604051610253919061098b565b60405180910390f35b61027660048036038101906102719190610b98565b610531565b005b6000600360009054906101000a900460ff16905090565b6000600154905090565b600360009054906101000a900460ff1681565b60008054906101000a900473ffffffffffffffffffffffffffffffffffffffff1673ffffffffffffffffffffffffffffffffffffffff163373ffffffffffffffffffffffffffffffffffffffff161461033a576040517f08c379a000000000000000000000000000000000000000000000000000000000815260040161033190610c40565b60405180910390fd5b80600360006101000a81548160ff0219169083600281111561035f5761035e6106d6565b5b021790555050565b60008054906101000a900473ffffffffffffffffffffffffffffffffffffffff1673ffffffffffffffffffffffffffffffffffffffff163373ffffffffffffffffffffffffffffffffffffffff16146103f5576040517f08c379a00000000000000000000000000000000000000000000000000000000081526004016103ec90610c40565b60405180910390fd5b600360006101000a81549060ff0219169055565b565b565b60008054906101000a900473ffffffffffffffffffffffffffffffffffffffff1681565b6000600480549050905090565b60056020528060005260406000206000915090508060000154908060070160009054906101000a900460ff16905082565b60025481565b60015481565b6004818154811061048b57600080fd5b90600052602060002090600702016000915090508060000180546104ae90610c8f565b80601f01602080910402602001604051908101604052809291908181526020018280546104da90610c8f565b80156105275780601f106104fc57610100808354040283529160200191610527565b820191906000526020600020905b81548152906001019060200180831161050a57829003601f168201915b5050505050905081565b60008054906101000a900473ffffffffffffffffffffffffffffffffffffffff1673ffffffffffffffffffffffffffffffffffffffff163373ffffffffffffffffffffffffffffffffffffffff16146105bf576040517f08c379a00000000000000000000000000000000000000000000000000000000081526004016105b690610c40565b60405180910390fd5b806000600603610604576040517f08c379a00000000000000000000000000000000000000000000000000000000081526004016105fb90610d32565b60405180910390fd5b6004604051806040016040528085815260200184815250908060018154018082558091505060019003906000526020600020906007020160009091909190915060008201518160000190816106599190610efe565b50602082015181600101906006610671929190610679565b505050505050565b82600681019282156106a8579160200282015b828111156106a757825182559160200191906001019061068c565b5b5090506106b591906106b9565b5090565b5b808211156106d25760008160009055506001016106ba565b5090565b7f4e487b7100000000000000000000000000000000000000000000000000000000600052602160045260246000fd5b60038110610716576107156106d6565b5b50565b600081905061072782610705565b919050565b600061073782610719565b9050919050565b6107478161072c565b82525050565b6000602082019050610762600083018461073e565b92915050565b6000819050919050565b61077b81610768565b82525050565b60006020820190506107966000830184610772565b92915050565b6000604051905090565b600080fd5b600080fd5b600381106107bd57600080fd5b50565b6000813590506107cf816107b0565b92915050565b6000602082840312156107eb576107ea6107a6565b5b60006107f9848285016107c0565b91505092915050565b600073ffffffffffffffffffffffffffffffffffffffff82169050919050565b600061082d82610802565b9050919050565b61083d81610822565b82525050565b60006020820190506108586000830184610834565b92915050565b61086781610768565b811461087257600080fd5b50565b6000813590506108848161085e565b92915050565b6000602082840312156108a05761089f6107a6565b5b60006108ae84828501610875565b91505092915050565b60008115159050919050565b6108cc816108b7565b82525050565b60006040820190506108e76000830185610772565b6108f460208301846108c3565b9392505050565b600081519050919050565b600082825260208201905092915050565b60005b8381101561093557808201518184015260208101905061091a565b60008484015250505050565b6000601f19601f8301169050919050565b600061095d826108fb565b6109678185610906565b9350610977818560208601610917565b61098081610941565b840191505092915050565b600060208201905081810360008301526109a58184610952565b905092915050565b600080fd5b600080fd5b7f4e487b7100000000000000000000000000000000000000000000000000000000600052604160045260246000fd5b6109ef82610941565b810181811067ffffffffffffffff82111715610a0e57610a0d6109b7565b5b80604052505050565b6000610a2161079c565b9050610a2d82826109e6565b919050565b600067ffffffffffffffff821115610a4d57610a4c6109b7565b5b610a5682610941565b9050602081019050919050565b82818337600083830152505050565b6000610a85610a8084610a32565b610a17565b905082815260208101848484011115610aa157610aa06109b2565b5b610aac848285610a63565b509392505050565b600082601f830112610ac957610ac86109ad565b5b8135610ad9848260208601610a72565b91505092915050565b600067ffffffffffffffff821115610afd57610afc6109b7565b5b602082029050919050565b600080fd5b6000610b20610b1b84610ae2565b610a17565b90508060208402830185811115610b3a57610b39610b08565b5b835b81811015610b635780610b4f8882610875565b845260208401935050602081019050610b3c565b5050509392505050565b600082601f830112610b8257610b816109ad565b5b6006610b8f848285610b0d565b91505092915050565b60008060e08385031215610baf57610bae6107a6565b5b600083013567ffffffffffffffff811115610bcd57610bcc6107ab565b5b610bd985828601610ab4565b9250506020610bea85828601610b6d565b9150509250929050565b7f4e6f74206f776e6572206f6620436f6e74726163740000000000000000000000600082015250565b6000610c2a601583610906565b9150610c3582610bf4565b602082019050919050565b60006020820190508181036000830152610c5981610c1d565b9050919050565b7f4e487b7100000000000000000000000000000000000000000000000000000000600052602260045260246000fd5b60006002820490506001821680610ca757607f821691505b602082108103610cba57610cb9610c60565b5b50919050565b7f496e707574746564204775657373204d757374206265203620696e206c656e6760008201527f7468000000000000000000000000000000000000000000000000000000000000602082015250565b6000610d1c602283610906565b9150610d2782610cc0565b604082019050919050565b60006020820190508181036000830152610d4b81610d0f565b9050919050565b60008190508160005260206000209050919050565b60006020601f8301049050919050565b600082821b905092915050565b600060088302610db47fffffffffffffffffffffffffffffffffffffffffffffffffffffffffffffffff82610d77565b610dbe8683610d77565b95508019841693508086168417925050509392505050565b6000819050919050565b6000610dfb610df6610df184610768565b610dd6565b610768565b9050919050565b6000819050919050565b610e1583610de0565b610e29610e2182610e02565b848454610d84565b825550505050565b600090565b610e3e610e31565b610e49818484610e0c565b505050565b5b81811015610e6d57610e62600082610e36565b600181019050610e4f565b5050565b601f821115610eb257610e8381610d52565b610e8c84610d67565b81016020851015610e9b578190505b610eaf610ea785610d67565b830182610e4e565b50505b505050565b600082821c905092915050565b6000610ed560001984600802610eb7565b1980831691505092915050565b6000610eee8383610ec4565b9150826002028217905092915050565b610f07826108fb565b67ffffffffffffffff811115610f2057610f1f6109b7565b5b610f2a8254610c8f565b610f35828285610e71565b600060209050601f831160018114610f685760008415610f56578287015190505b610f608582610ee2565b865550610fc8565b601f198416610f7686610d52565b60005b82811015610f9e57848901518255600182019150602085019450602081019050610f79565b86831015610fbb5784890151610fb7601f891682610ec4565b8355505b6001600288020188555050505b50505050505056fea2646970667358221220bbaae98750fe4c9413f5e5e905f77bfe601e60d56295d6217fcce08b6ed98ea864736f6c63430008110033",
  "linkReferences": {},
  "deployedLinkReferences": {}
}